:02000000FA2FD5
:100A6E00DF002030DF025F080800E401E501601CB2
:100A7E00462D6208E4070318E50A6308E50701300E
:100A8E000310E20DE30DFF3E031D472D0130031051
:100A9E00E10CE00CFF3E031D4E2D61086004031DAA
:100AAE003E2D6508E101E1076408E001E00708005A
:100ABE00E101E2016208803ADF0080305F02031D2F
:100ACE006A2D5E086102031808006108403E84002A
:100ADE0000088312031386000330E0005530DF0058
:100AEE00DF0B772DE00B772D831203138601013078
:100AFE00E1070318E20A0030E207612D0630831683
:100B0E0003139F00FF30850087017A270030831280
:100B1E000313051801300139F5007508F90079083D
:100B2E00F5007508F8000030831203130518013024
:100B3E000139F5007508F900790878060319962D24
:100B4E00F908031D962D0230F700A030F600923002
:100B5E00F500F50BB02DF60BB02DF70BB02D0000F8
:100B6E005F25962DE3006308DF0001300310DF0CD4
:100B7E00FF3E031DBD2D55305F05E000630855395E
:100B8E00E10061076004E2006208E3006308DF0031
:100B9E0002300310DF0CFF3E031DD02D33305F05F6
:100BAE00E00063083339E10001300310E10DFF3E30
:100BBE00031DDC2D0310610D6004E2006208E300EA
:100BCE006308DF0004300310DF0CFF3E031DEA2D27
:100BDE0063080F39E00003300310E00DFF3E031DE4
:100BEE00F32D0310600D5F04E1006108E30063085C
:100BFE000800FF1B0A2E83137F1883170008840A30
:100C0E000319FF0A08007F087F398A000408840A46
:100C1E000319FF0A8200003400340034003400341B
:100C2E000034003400340034FD3400340034003419
:100C3E00FF34FF34FF34FF34FF3400342434FF34E8
:100C4E002434FF342434003412342A347F342A34CA
:100C5E0024340034FF34FF34FF34FF34FF340034C7
:100C6E00763489349534623405340034FF34FF34DD
:100C7E00FF34FF34FF34003400343C3442348134CA
:100C8E00003400340034813442343C3400340034B7
:100C9E00FF34FF34FF34FF34FF340034083408349B
:100CAE003E34083408340034FF34FF34FF34FF344C
:100CBE00FF3400340834083408340834083400345F
:100CCE00FF34FF34FF34FF34FF340034FF34FF347D
:100CDE00FF34FF34FF3400347E3489349134A13430
:100CEE007E34003400344134FF3401340034003497
:100CFE004334853489349134613400344234813440
:100D0E00913491346E340034183428344834FF341E
:100D1E0008340034F2349134913491348E340034EA
:100D2E001E342934493489348634003480348F3467
:100D3E009034A034C03400346E34913491349134F4
:100D4E006E3400347034893489348A347C340034FF
:100D5E0000340034FD3400340034003444340234A2
:100D6E00123402344434003408341C342A34083427
:100D7E000834003414341434143414341434003459
:100D8E001034103454343834103400346034803419
:100D9E008D34903460340034663489348F34813429
:100DAE007E3400347F348834883488347F34003481
:100DBE00FF349134913491346E3400347E34813466
:100DCE008134813442340034FF34813481344234EE
:100DDE003C340034FF3491349134913481340034F6
:100DEE00FF34903490349034803400347E34813427
:100DFE00893489344E340034FF34103410341034B6
:100E0E00FF34003481348134FF3481348134003432
:100E1E000634013401340134FE340034FF34183406
:100E2E002434423481340034FF340134013401342B
:100E3E0001340034FF34403430344034FF34003455
:100E4E00FF34403430340834FF3400347E3481347F
:100E5E00813481347E340034FF34883488348834CD
:100E6E00703400347E348134853482347D340034E1
:100E7E00FF3488348C348A347134003461349134C4
:100E8E00913491348E34003480348034FF34803485
:100E9E0080340034FE34013401340134FE34003425
:100EAE00F0340C3403340C34F0340034FF34023498
:100EBE000C340234FF340034C33424341834243454
:100ECE00C3340034E03410340F341034E0340034C2
:100EDE00833485349934A134C1344B34493452347B
:100EEE0041344E340034ED01EE010530E600660863
:100EFE00FA00ED01EE016E08803AE60080306602DF
:100F0E00031D8B2F7A086D020318EA2FEF01F001F3
:100F1E007008803AFF0080307F02031D982F063044
:100F2E006F020318E32F6D08743E84008730031898
:100F3E00013E83120313FF0000263725E600E7016A
:100F4E006608E0006708E1000630E2000030E300CA
:100F5E003C251230E8008630E90060086807EA0098
:100F6E0061080318610A6907EB006F086A078400BD
:100F7E0070080318700A6B0783120313FF00002614
:100F8E00B925EC005E08403E84006C0880000130FC
:100F9E00E6006608DE070130EF070318F00A00309E
:100FAE00F0077008803AFF0080307F02031DE12FAA
:100FBE0006306F02031C9A2F0130ED070318EE0A5C
:100FCE000030EE07822F5E08403E8400800108004C
:100FDE0064008001840A0406031900340406F02F0D
:0C0FF400403084005F30EF278301852D22
:02400E00BAFFF7
:00000001FF
