:02000000FA2FD5
:100A0C00DF002030DF025F080800E401E501601C14
:100A1C00152D6208E4070318E50A6308E5070130A1
:100A2C000310E20DE30DFF3E031D162D01300310E4
:100A3C00E10CE00CFF3E031D1D2D61086004031D3D
:100A4C000D2D6508E101E1076408E001E0070800ED
:100A5C00E3006308DF0001300310DF0CFF3E031DD1
:100A6C00322D55305F05E00063085539E100610710
:100A7C006004E2006208E3006308DF000230031048
:100A8C00DF0CFF3E031D452D33305F05E00063088E
:100A9C003339E10001300310E10DFF3E031D512DF0
:100AAC000310610D6004E2006208E3006308DF00DC
:100ABC0004300310DF0CFF3E031D5F2D63080F395C
:100ACC00E00003300310E00DFF3E031D682D031002
:100ADC00600D5F04E1006108E30063080800EF01AA
:100AEC00F001EF01F0017A30840087308312031398
:100AFC00FF000026E6007008803AE70080306702AD
:100B0C00031D8A2D66086F020318FB2DED01EE0103
:100B1C006E08803AFF0080307F02031D972D06304F
:100B2C006D020318E22D6F08743E840087300318A1
:100B3C00013E83120313FF0000260625E600E701A1
:100B4C006608E0006708E1000630E2000030E300D0
:100B5C000B251230E8008630E90060086807EA00CF
:100B6C0061080318610A6907EB006D086A078400C5
:100B7C006E0803186E0A6B0783120313FF0000261E
:100B8C002E25EC005E08403E84006C08800001308D
:100B9C00E6006608DE070130ED070318EE0A0030A8
:100BAC00EE076E08803AFF0080307F02031DE02DB7
:100BBC0006306D02031C992D0130EF070318F00A63
:100BCC000030F0077A308400873083120313FF0063
:100BDC000026E6007008803AE70080306702031DAB
:100BEC00F92D66086F02031C8C2D5E08403E8400B4
:100BFC0080010800FF1B0A2E83137F18831700083F
:100C0C00840A0319FF0A08007F087F398A00040848
:100C1C00840A0319FF0A82000034003400340034C3
:100C2C0000340034003400340034FD34003400341B
:100C3C000034FF34FF34FF34FF34FF3400342434E9
:100C4C00FF342434FF342434003412342A347F34F7
:100C5C002A3424340034FF34FF34FF34FF34FF349F
:100C6C000034763489349534623405340034FF34DE
:100C7C00FF34FF34FF34FF34003400343C3442344E
:100C8C008134003400340034813442343C34003438
:100C9C000034FF34FF34FF34FF34FF3400340834A5
:100CAC0008343E34083408340034FF34FF34FF3445
:100CBC00FF34FF3400340834083408340834083462
:100CCC000034FF34FF34FF34FF34FF340034FF347E
:100CDC00FF34FF34FF34FF3400347E3489349134D4
:100CEC00A1347E34003400344134FF3401340034F8
:100CFC0000344334853489349134613400344234C3
:100D0C008134913491346E3400341834283448349E
:100D1C00FF3408340034F2349134913491348E34ED
:100D2C0000341E34293449348934863400348034F8
:100D3C008F349034A034C03400346E3491349134F8
:100D4C0091346E3400347034893489348A347C3470
:100D5C00003400340034FD340034003400344434A6
:100D6C000234123402344434003408341C342A342F
:100D7C000834083400341434143414341434143453
:100D8C00003410341034543438341034003460349B
:100D9C0080348D34903460340034663489348F342C
:100DAC0081347E3400347F348834883488347F3402
:100DBC000034FF349134913491346E3400347E34E9
:100DCC0081348134813442340034FF3481348134B1
:100DDC0042343C340034FF349134913491348134B6
:100DEC000034FF34903490349034803400347E34AA
:100DFC008134893489344E340034FF341034103447
:100E0C001034FF34003481348134FF348134813424
:100E1C0000340634013401340134FE340034FF3420
:100E2C0018342434423481340034FF340134013416
:100E3C00013401340034FF34403430344034FF3456
:100E4C000034FF34403430340834FF3400347E3402
:100E5C008134813481347E340034FF3488348834D6
:100E6C008834703400347E348134853482347D345B
:100E7C000034FF3488348C348A3471340034613457
:100E8C009134913491348E34003480348034FF3476
:100E9C00803480340034FE34013401340134FE34A7
:100EAC000034F0340C3403340C34F0340034FF349C
:100EBC0002340C340234FF340034C3342434183478
:100ECC002434C3340034E03410340F341034E034A0
:100EDC000034833485349934A134C1344B344934CF
:100EEC00523441344E340034053406308316031327
:100EFC009F00FF3085008701752500308312031396
:100F0C00051801300139F5007508F9007908F5006C
:100F1C007508F800FF3087000B30F7002330F6001F
:100F2C00CE30F500F50B982FF60B982FF70B982F6A
:100F3C008312031387010030831203130518013049
:100F4C000139F5007508F900790878060319BF2FE7
:100F5C00F908031DBF2F0230F7000430F600BA3039
:100F6C00F500F50BB72FF60BB72FF70BB72F0000CB
:100F7C00C4277908F5007508F800A12FE201E301F8
:100F8C006308803ADF0080305F02031DCF2F5E08BC
:100F9C006202031808006208403E840000088312B5
:100FAC00031387000630E1001330E000B130DF009E
:100FBC00DF0BDE2FE00BDE2FE10BDE2FE52F831294
:100FCC00031387010130E2070318E30A0030E3073B
:100FDC00C62F64008001840A040603190034040639
:020FEC00F02FE4
:0C0FF400403084005F30EF2783017B2F2A
:02400E00BAFFF7
:00000001FF
