:020000005C287A
:08000800FF00030E8312031335
:10001000B4000A0EB500040EB6008A110A12842834
:10002000C308031D14280800F5300000000000007C
:1000300000000000000000000000000000000000C0
:1000400000000000000000000000FF3E031D152816
:1000500000000000000000000000000000000000A0
:1000600000000000000000000000C30B142808007E
:10007000FA30C3001020FA30C3001020FA30C30059
:100080001020FA30C3001020C20B382808000730B7
:10009000831603139F00C03081008316870101304F
:1000A00083128700C20038208316870183128701DC
:1000B0000130C20038204D28D53083120313A00030
:1000C000C430A100BB30A200DC30A300A401A50114
:1000D000A601A701A801A901AA01AB01AC01AD01CC
:1000E000AE01AF01BC01BD01B701B801BE01BF0146
:1000F000C001C101B001B101B201B301BA01BB013C
:10010000B9018A110A12472883120313360E84009C
:0E011000350E8A00340E8300FF0E7F0E0900AC
:02400E00AA3FC7
:00000001FF
