:02000000F82FD7
:100A2400F0002030F00270080800F501F601711C96
:100A3400212D7308F5070318F60A7408F607013028
:100A44000310F30DF40DFF3E031D222D013003109E
:100A5400F20CF10CFF3E031D292D72087104031DD5
:100A6400192D7608F201F2077508F101F107080063
:100A74008316031386010730831203139F00831622
:100A8400031385146D250030831203138518013078
:100A94000139A8002808AB002B08A8002808AA00E0
:100AA4000030851801300139A8002808AB002B0854
:100AB4002A0603196A2DAB08031D6A2DD030A9003C
:100AC400C930A800A80B642DA90B642D692DC72774
:100AD400831203134E2D83120313A201A301A20157
:100AE400A3017F3084008730FF000026F70023082D
:100AF400803AF80080307802031D822D77082202A4
:100B04000318F82D83120313A001A1012108803AD0
:100B1400FF0080307F02031D912D06302002031850
:100B2400DF2D831203132208743E840087300318D8
:100B3400013EFF0000261225F700F8017708F100B6
:100B44007808F2000630F3000030F4001725123064
:100B5400F9008630FA0071087907FB00720803185F
:100B6400720A7A07FC008312031320087B078400AF
:100B740021080318210A7C07FF0000268027FD00B6
:100B8400831203132C08A03E84007D088313800085
:100B94000130F7007708AC070130A0070318A10A59
:100BA4000030A1072108803AFF0080307F02031D36
:100BB400DD2D06302002031C932D01308312031314
:100BC400A2070318A30A0030A3077F3084008730EC
:100BD400FF000026F7002308803AF80080307802EE
:100BE400031DF62D77082202031C842D83120313A0
:100BF4002C08A03E8400831380010800FF1B0A2EEA
:100C040083137F1883170008840A0319FF0A080056
:100C14007F087F398A000408840A0319FF0A8200C6
:100C24000034003400340034003400340034003420
:100C34000034FD34003400340034FF34FF34FF3416
:100C4400FF34FF3400342434FF342434FF34243498
:100C5400003412342A347F342A3424340034FF34E8
:100C6400FF34FF34FF34FF34003476348934953450
:100C7400623405340034FF34FF34FF34FF34FF346E
:100C8400003400343C3442348134003400340034C1
:100C9400813442343C3400340034FF34FF34FF34B4
:100CA400FF34FF340034083408343E340834083444
:100CB4000034FF34FF34FF34FF34FF34003408348D
:100CC40008340834083408340034FF34FF34FF3463
:100CD400FF34FF340034FF34FF34FF34FF34FF3477
:100CE40000347E3489349134A1347E3400340034A9
:100CF4004134FF34013400340034433485348934BE
:100D040091346134003442348134913491346E34FA
:100D14000034183428344834FF3408340034F234AE
:100D24009134913491348E3400341E34293449344E
:100D340089348634003480348F349034A034C03401
:100D440000346E349134913491346E340034703400
:100D5400893489348A347C34003400340034FD34DA
:100D64000034003400344434023412340234443441
:100D7400003408341C342A3408340834003414345D
:100D840014341434143414340034103410345434FB
:100D9400383410340034603480348D34903460340A
:100DA4000034663489348F3481347E3400347F34A3
:100DB4008834883488347F340034FF349134913457
:100DC40091346E3400347E3481348134813442343D
:100DD4000034FF348134813442343C340034FF34F1
:100DE40091349134913481340034FF34903490340C
:100DF4009034803400347E348134893489344E34E0
:100E04000034FF34103410341034FF34003481348F
:100E14008134FF34813481340034063401340134A4
:100E24000134FE340034FF34183424344234813421
:100E34000034FF3401340134013401340034FF340C
:100E4400403430344034FF340034FF3440343034E0
:100E54000834FF3400347E348134813481347E3468
:100E64000034FF34883488348834703400347E3459
:100E74008134853482347D340034FF3488348C34B6
:100E84008A347134003461349134913491348E3421
:100E9400003480348034FF34803480340034FE34B1
:100EA400013401340134FE340034F0340C3403349E
:100EB4000C34F0340034FF3402340C340234FF3484
:100EC4000034C334243418342434C3340034E034B8
:100ED40010340F341034E0340034833485349934BE
:100EE400A134C134413441344434493420344B3482
:100EF4004934523441344E3400340A34F400740812
:100F0400F00001300310F00CFF3E031D842F553018
:100F14007005F10074085539F20072077104F3008A
:100F24007308F4007408F00002300310F00CFF3E64
:100F3400031D972F33307005F10074083339F20024
:100F440001300310F20DFF3E031DA32F0310720D99
:100F54007104F3007308F4007408F0000430031003
:100F6400F00CFF3E031DB12F74080F39F10003305C
:100F74000310F10DFF3E031DBA2F0310710D700411
:100F8400F2007208F40074080800F101F20172081A
:100F9400803AF00080307002031DD42F83120313B3
:100FA4002C087102031808007108A03E8400831302
:100FB4000008831203138600E030F0000000F00BF9
:100FC400E02FE42F00008312031386010130F107A0
:100FD4000318F20A0030F207C92F64008001840A62
:0A0FE4000406031900340406F02F80
:100FF000AC018313A0308400E830EF2783013A2D41
:02400E0019FF98
:00000001FF
